:020000040800F2
:1000000000000220A5020008F1020008F102000829
:10001000F1020008F1020008F102000800000000EF
:10002000000000000000000000000000F1020008D5
:10003000F102000800000000F1020008F1020008CF
:10004000F1020008F1020008F1020008F1020008C4
:10005000F1020008F1020008F1020008F1020008B4
:10006000F1020008F1020008F1020008F1020008A4
:10007000F1020008F1020008F1020008F102000894
:10008000F1020008F1020008F1020008000000007F
:10009000000000000000000000000000F102000865
:1000A000F1020008F1020008F1020008F102000864
:1000B000F1020008F1020008F1020008F102000854
:1000C000F1020008F1020008F1020008F102000844
:1000D000F1020008F1020008F1020008000000002F
:1000E000F1020008F1020008F1020008000000001F
:1000F000000000000000000000000000F102000805
:1001000000000000F1020008F1020008F1020008FE
:1001100000000000000000000000000000000000DF
:10012000F1020008F1020008F1020008F1020008E3
:10013000F1020008000000000000000000000000C4
:10014000000000000000000000000000F1020008B4
:10015000F1020008F1020008F1020008F1020008B3
:10016000F1020008F1020008000000000000000099
:10017000000000000000000000000000000000007F
:1001800000000000F1020008000000000000000074
:10019000F1020008F1020008044B05481B1A062B67
:1001A00002D9044B03B11847704700BF2B0A002047
:1001B000280A00200000000005490648091A891095
:1001C00001EBD171491002D0034B03B118477047BE
:1001D000280A0020280A00200000000010B5064C64
:1001E000237843B9FFF7D8FF044B13B10448AFF3AA
:1001F00000800123237010BD280A002000000000A9
:100200007871000808B5084B1BB108480849AFF3DE
:1002100000800848036813B9BDE80840CCE7064BE6
:10022000002BF9D09847F7E700000000787100082C
:100230002C0A0020240A002000000000134B002B91
:1002400008BF114B9D46A3F5803A00218B460F460F
:100250001148124A121A02F071FC0D4B002B00D00B
:1002600098470C4B002B00D0984700200021040039
:100270000D000B4801F008FD02F04EF820002900A7
:1002800001F042FC01F036FD0000080000000220F1
:1002900000000000FD1A0008280A0020780E002047
:1002A0004D200008DFF830D0002103E00B4B5B58F5
:1002B000435004310A480B4B42189A42F6D30A4A7B
:1002C00002E0002342F8043B084B9A42F9D300F0C5
:1002D000A1FFFFF7B3FF704700000220F471000890
:1002E00098010020280A0020280A0020780E00200B
:1002F000FEE770B50E460446154601F02EFA0136AB
:100300000ED0E168636805B91B0420460B6001212B
:1003100001F03CFA20460021BDE8704001F032BAFD
:1003200070BD0022FFF7E5BF10B50446013001D1D2
:1003300010BD0C31B1F900305A1C0BD0A342F8D1DA
:100340002046896801F0C6F920460021BDE810402A
:1003500001F0E2B90248BDE8104000F031B800BF3A
:10036000BC6D0008884208B50AD0431C07D0013193
:1003700006D0044800F024F84FF0FF3008BD0846CE
:1003800008BD00BFCD6D0008B1F900305A1C05D082
:10039000834201D1486870470C31F5E71846704731
:1003A000421C10B5044607D0FFF7EEFF431C04467D
:1003B00002D1024800F004F8204610BDDE6D0008AE
:1003C0000FB407B504A951F8040B019100F018F817
:1003D000012001F08FFC1FB500F04EF868460521A2
:1003E000FFF79FFF039B019A1A60962000F088F8A0
:1003F000019B039A1B041360962000F081F8F1E73B
:1004000030B50546A1B00C4600F036F829466846DE
:10041000224604F0DBF8051E03DC00F043F821B0AF
:1004200030BD094B1B6823B908480221032201F0A3
:100430000BF800241DF804100448013401F0C8F83A
:10044000AC42F7D1E9E700BF580C0020280E00208D
:100450000FB407B504A951F8040B0191FFF7D0FFC1
:1004600003B05DF804EB04B07047EFF3108000F0C8
:10047000010080F00100704708B5FFF7F6FF72B683
:10048000064B1A6822B980F00100054AC0B210700C
:100490001A681A6801321A6008BD00BF440A0020B9
:1004A000480A002010B5074C236853B1FFF7DDFF61
:1004B0002368013B236023681BB9034B1B7803B9F6
:1004C00062B610BD440A0020480A002038B5044630
:1004D00001F07CF9054601F079F9401BA042FAD3FE
:1004E00038BD000007EE100ADFED047A67EE277AC8
:1004F000FDEEE77A17EE900AFFF7E8BF0024744993
:100500004FF47A735843FFF7E1BF0000014800F051
:1005100015B800BF306E000870B506460D4614468B
:10052000FFF7AAFF31462A4623460348FFF790FF0C
:10053000BDE87040FFF74FBF386E0008036870B524
:10054000DB680446984763685A6823681AB99B6851
:10055000BDE8704018475B6815689847281A00285E
:10056000636808DC5A68916859601B68002BEAD000
:1005700050689847E7E721685A680B691068BDE83A
:10058000704018472DE9F04706683369044623F4A4
:100590004052C3682169C0691343A2683361F3689C
:1005A0001143626923F416430A43024323F00C0308
:1005B0001343F360736923F44072A369B0F5004FED
:1005C00043EA020373617B4B7CD19E4203D003F567
:1005D00080639E4231D100F02DFD636819254FEAFA
:1005E00043086843B0FBF8F800F024FD67686843EF
:1005F0007F00B0FBF7F700F01DFD63684FF0640962
:100600005B006843B0FBF3F0B0FBF9F009FB107737
:1006100000F010FDB8FBF9F86268FF003237B7FB55
:10062000F9F707F0F807684352004FEA08187F000F
:10063000B0FBF2FA00F0FEFC30E000F0E3FC63688F
:1006400019254FEA43086843B0FBF8F800F0DAFCDC
:10065000676868437F00B0FBF7F700F0D3FC63687E
:100660004FF064095B006843B0FBF3F0B0FBF9F0B6
:1006700009FB107700F0C6FCB8FBF9F8FF006268D0
:100680003237B7FBF9F707F0F807684352004FEA33
:1006900008187F00B0FBF2FA00F0B4FC4543606834
:1006A0004000B5FBF0F0B0FBF9F009FB10A2D2005E
:1006B0003232B2FBF9F303F0070343441F44B7603F
:1006C000BDE8F0879E4202D03B4B9E422ED100F007
:1006D000B1FC676819256843BF00B0FBF7F700F06D
:1006E000A9FC636868439B00B0FBF3F800F0A2FC30
:1006F00063684FF0640968439B00B0FBF3F0B0FB04
:10070000F9F009FB10831B013233B3FBF9F303F05B
:10071000F00800F08FFCB7FBF9F7626868439200BD
:100720003F01B0FBF2FA00F085FC2DE000F06AFC1E
:10073000676819256843BF00B0FBF7F700F062FC5B
:10074000636868439B00B0FBF3F800F05BFC6368F0
:100750004FF064099B006843B0FBF3F0B0FBF9F085
:1007600009FB10831B013233B3FBF9F303F0F008EC
:1007700000F048FCB7FBF9F76268684392003F015C
:10078000B0FBF2FA00F03EFC454360688000B5FB28
:10079000F0F0B0FBF9F009FB10A212013232B2FB0B
:1007A000F9F202F00F0208EB02033B44B360BDE82C
:1007B000F08700BF0010014000140140704710B5E1
:1007C000044640B390F8393003F0FF021BB980F8BB
:1007D0003820FFF7F3FF2268242384F83930D368E8
:1007E00023F40053D3602046FFF7CCFE23681A6938
:1007F00022F490421A615A6922F02A025A61DA6898
:1008000042F40052DA6000202023E06384F839309B
:1008100084F83A3010BD012010BD00002DE9F341ED
:100820000F6800220123934003EA07059D4240F030
:10083000B9804C6824F0100CBCF1020F14D14FEABF
:10084000D20E00EB8E0E02F00706DEF82030B60066
:100850004FF00F0808FA06F823EA08080B69B340BE
:1008600048EA0303CEF820304FEA420E032306681D
:1008700003FA0EF3DB4303EA060804F0030606FA64
:100880000EF60CF1FF3C48EA0606BCF1010F0660CB
:1008900011D8866803EA060CCE6806FA0EF64CEA12
:1008A00006068660466826EA050CC4F300169640E4
:1008B0004CEA06064660C66803EA060C8B6803FA33
:1008C0000EF64CEA0603C360E3006BD5394E0023F5
:1008D0000193D6F844E04EF4804EC6F844E0766CBE
:1008E00006F480460196019E22F0030606F180463A
:1008F00006F59C3602F0030CD6F808804FEA8C0C03
:100900004FF00F0E0EFA0CFE28EA0E0EDFF8AC8048
:10091000404519D003F1804303F5013398420ED0CE
:1009200003F5806398420CD003F5806398420AD0A7
:1009300003F5806398420CBF0423052304E00123E0
:1009400002E0022300E0032303FA0CF343EA0E0360
:10095000DFF864E0B360DEF80030EE4314F4803F6B
:1009600014BF2B433340CEF80030DEF80430DFF8FC
:1009700048E014F4003F14BF2B433340CEF804305A
:10098000DEF8083014F4801F14BF2B433340CEF838
:100990000830DEF80C30A40254BF06EA03051D43FC
:1009A000054BDD600132102A7FF43CAF02B0BDE898
:1009B000F08100BF00380240003C014000000240CE
:1009C00008B50B4B1A6842F400721A601A6842F4B8
:1009D00080621A601A6842F480721A60032000F084
:1009E000A3F80F2000F09EFC00F09CF8002008BD4A
:1009F000003C0240024A136801331360704700BF95
:100A0000E80D0020014B1868704700BFE80D00207A
:100A100070470000224A036890420ED0B0F1804F28
:100A20000BD0A2F57C42904207D002F58062904242
:100A300003D002F58062904214D14A6823F070031B
:100A40001343174A904225D0B0F1804F22D0154A67
:100A500090421FD002F5806290421BD002F5806266
:100A6000904217D0104A904214D002F58062904212
:100A700010D002F5806290420CD003608B68C36294
:100A80000B688362064B984204BF0B690363012322
:100A900043617047CA6823F440731343EDE700BF16
:100AA00000000140000400400040014010B5044631
:100AB000A0B190F8393003F0FF021BB980F838205C
:100AC000FFF7A6FF022384F839302068211DFFF7C5
:100AD000A1FF012384F83930002010BD012010BD92
:100AE00010B50123046A8B4024EA03030362036AFE
:100AF0008A401343036210BD10B50446012200680A
:100B0000FFF7EEFF2368064A934202BF5A6C42F495
:100B100000425A641A6842F001021A60002010BDB7
:100B20000000014070470000074AD36823F4E063E7
:100B30001B041B0C43F0BF6343F4003300F00700B9
:100B400043EA0023D360704700ED00E00368F7B587
:100B5000D907044603D423689A0737D484E0A54B09
:100B60009A6802F00C02042A07D09A6802F00C027C
:100B7000082A0BD15B685B0208D59E4B1B689F035C
:100B8000E9D56368002BE6D1012030E19A4B227948
:100B90001A7063686BB1FFF735FF0546954B1B680C
:100BA0009E03D8D4FFF72EFF401BC828F6D9032098
:100BB0001DE1FFF727FF05468E4B1B689803CAD53A
:100BC000FFF720FF401BC828F6D9F0E7894B9A6849
:100BD00012F00C0F07D09A6802F00C02082A16D106
:100BE0005B68590213D4834B1A68920702D5E268F6
:100BF000012AC9D11968F82090FAA0F02269B0FA48
:100C000080F021F0F80182400A431A602CE0E2688B
:100C10007A4BDAB101221A60FFF7F4FE05467548F7
:100C200003689F0705D4FFF7EDFE401B0228F6D9A5
:100C3000BDE70268F82191FAA1F12369B1FA81F1C7
:100C400022F0F8028B40134303600DE01A60FFF7B7
:100C5000D9FE0546674B1B689E0705D5FFF7D2FEF8
:100C6000401B0228F6D9A2E72368180703D423689B
:100C7000590744D51FE06269614B72B101221A60C5
:100C8000FFF7C0FE05465B4B5B6F9A07EFD4FFF79B
:100C9000B9FE401B0228F6D989E71A60FFF7B2FEB9
:100CA0000546544B5B6F9B07E1D5FFF7ABFE401B3E
:100CB0000228F6D97BE7002301934E4B1A6C42F0D1
:100CC00080521A641B6C4F4A03F080530193019BBE
:100CD000136843F480731360FFF794FE0546494B95
:100CE0001B68DF050ED5484B227A1A70A368BBB18A
:100CF000FFF788FE05463F4B1B6F9E0708D5A2698C
:100D0000EAB959E0FFF77EFE401B0228E7D94EE71B
:100D1000FFF778FE41F28833401B9842EBD946E753
:100D2000FFF770FE0546334B1B6F9807E7D5FFF7BB
:100D300069FE41F28833401B9842F4D937E72D4BC6
:100D40009B6803F00C03082B3FF41EAF2F4D0023CC
:100D5000022A2B603ED1FFF755FE06462548036860
:100D600099012BD447F6C07797FAA7F74FF440368E
:100D7000B7FA87F796FAA6F64FF07061B6FA86F6DC
:100D800091FAA1F1E369226AB1FA81F11A43636A27
:100D9000BB401A43A36A5B08013BB3401343E26ABA
:100DA0008A401343436001232B60FFF72BFE044668
:100DB000104B1B689A0107D5002018E0FFF722FEB0
:100DC000801B0228CAD9F2E6FFF71CFE001B02288E
:100DD000EED9ECE6FFF716FE0446064B1B689B01B6
:100DE000EAD5FFF70FFE001B0228F6D9DFE603B0B5
:100DF000F0BD00BF00380240023802400000474208
:100E0000800E474200700040703802406000474248
:100E100010B51C4CA36803F00C03042B2ED0082B38
:100E20002ED1626802F03F03626847F6C07112F487
:100E3000800F626891FAA1F147F6C07000EA0200E3
:100E400008BF114AB1FA81F120FA01F00EBFB2FBDE
:100E5000F3F20E49B1FBF3F202FB00F3094A5068CA
:100E60004FF4403292FAA2F200F44030B2FA82F229
:100E7000D04001304000B3FBF0F010BD034810BD7E
:100E8000014810BD003802400024F40000127A002E
:100E9000584B1A6802F00F02914270B504460D4695
:100EA0000AD82168880710D55348836823F0F002D8
:100EB000A3681343836008E0CAB21A701B6803F08A
:100EC0000F038B42EDD0012070BDC90706D4494BFA
:100ED0001A6802F00F0295425AD360E06368464AEE
:100EE000012B03D1126812F4003F08E0991E01297A
:100EF000126802D812F0007F01E012F0020FE2D077
:100F00003D498A6822F0030213438B60FFF77AFDA4
:100F10006368012B06460ED1374B9B6803F00C0328
:100F2000042BD4D0FFF76EFD41F28833801B98422A
:100F3000F2D9032070BD022B0DD12F4B9B6803F01B
:100F40000C03082BC3D0FFF75DFD41F28833801BF3
:100F50009842F2D9EDE7032B14D1274B9B6803F09D
:100F60000C030C2BB3D0FFF74DFD41F28833801BEF
:100F70009842F2D9DDE7FFF745FD41F28833801B47
:100F80009842D6D81C4B9B6813F00C0FF3D19EE708
:100F9000EAB21A701B6803F00F03AB4293D12168C9
:100FA0004A0706D51448836823F4E052E3681343E4
:100FB00083600B0741BF104A2169936823F46043A3
:100FC00044BF43EAC1039360FFF722FF0A4BF022BC
:100FD0009B6892FAA2F203F0F003B2FA82F2D340D5
:100FE000064AD35CD840064B18600F2000F09AF9EF
:100FF000002070BD003C024000380240696E0008CD
:1010000098010020084B4FF4E0529B6892FAA2F23C
:1010100003F4E053B2FA82F2D340044AD35C044AA8
:101020001068D840704700BF00380240696E000861
:1010300098010020084B4FF460429B6892FAA2F29C
:1010400003F46043B2FA82F2D340044AD35C044A08
:101050001068D840704700BF00380240696E000831
:1010600098010020174A1849936803F00C03042BD9
:1010700003D0082B03D0154B18E0154B16E0506831
:10108000536810F4800F03F03F03506814BF104AF8
:101090000E4AB2FBF3F30B4A5268C2F30142C0F3AB
:1010A0008810013243435200B3FBF2F30B60054B4F
:1010B000084A9B68C3F30313D25C0B68D3400B60F0
:1010C000704700BF00380240980100200024F4005F
:1010D00000127A00796E000810B594B0204B002100
:1010E00001911A6C42F080521A641B6C1D4A03F085
:1010F00080530193019B0291136823F4404343F40E
:1011000000431360136803F440430293029B0123DE
:10111000089300B1052309934FF480030F93042330
:1011200002241093C022129308A808230E9411924F
:101130001393FFF70BFD78B90F23039305904FF43A
:1011400080530790032103A804940693FFF7A0FEA1
:10115000B0FA80F0400900E0002014B010BD00BFDC
:10116000003802400070004070B594B00024204B5D
:1011700001941A6C42F080521A641B6C1D4A03F0F1
:1011800080530193019B0294136823F4404343F47A
:10119000004313601368099403F440430293029BD5
:1011A0000F940123C0220B93102303250C930226D6
:1011B0000823119208A8042208950E961093129203
:1011C0001393FFF7C3FC78B90F23039305904FF4F3
:1011D00080530790294603A804960693FFF758FE0C
:1011E000B0FA80F0400900E0204614B070BD00BFA6
:1011F000003802400070004008B50120FFF76CFF86
:1012000030B9FFF769FF18B9FFF7AEFF00B9FEE785
:1012100008BD0000174AD2F8883010B543F47003B7
:10122000154CC2F888302368002143F00103236085
:10123000A160236823F0847323F4803323600F4B71
:101240006360236823F4802323604FF00063E16030
:1012500093600B4B0B4A1A60FFF7B2FBFFF7CCFF12
:10126000236A43F008032362236A23F008032362FE
:1012700010BD00BF00ED00E0003802401030002437
:10128000980100200024F40010B50C4CA268A4685A
:10129000B4F1006F13460CD1131F094A53F8044FE1
:1012A00042F8044F074CA242F8D1044A4FF00053D1
:1012B0009360103043F8201010BD00BF00ED00E037
:1012C000FCFFFF1F9401002038B5144B1A68116908
:1012D00011F0020F1C4607D0D368980704D56FF0B1
:1012E00002031361FFF712F923681A69510714D535
:1012F000DA68520711D56FF00402094D1A615C6A71
:101300002B68E31AB3F57A7F07D3FFF773FB034B20
:101310002C601B6804F57A729A6338BDEC0D0020CE
:10132000540A002037B5234B234C002501951A6C35
:1013300042F008021A641A6C02F008020192019A43
:101340001A6A42F008021A621A6A22F008021A6245
:10135000FFF788FE194B23604FF0FF33E360184B13
:10136000184A1B68B3FBF2F32046013B636025611A
:10137000A5606561FFF79AFB32201349FFF784FFF0
:10138000124B4FF480225A6029462046FFF7B4FBE7
:1013900020460421FFF7B0FB23680D495A6A0A6012
:1013A00002F57A729A63DA68284642F00402DA603B
:1013B00003B030BD00380240EC0D0020000C0040AE
:1013C0009801002040420F00C912000800E100E02F
:1013D000540A002042681A490346920110B5006879
:1013E00088508C189A6862602246D96842F8081FB3
:1013F000196951605969916004F110011A6A8A6093
:101400000022E261E284A284E285A285B3F91A2077
:10141000013201D1082305E0B3F9183001330CBFC4
:1014200004230C234B60FFF71DFE2046FFF7C7F98E
:1014300020B10448BDE81040FEF7C2BF10BD00BF98
:10144000580A0020896E0008F0B5044685B00846A9
:101450000E4645491546FEF7A3FF44490746284670
:10146000FEF79EFF01463846FEF77CFF404B2060AA
:1014700098421DD003F5806398422FD0A3F55043C6
:10148000984241D13B4B1A6A42F400321A621A6AFE
:1014900022F400321A62002202921A6C42F40032E4
:1014A0001A641B6C03F400330293029B01232AE0AD
:1014B000304B5A6A42F010025A625A6A002122F0F6
:1014C00010025A6201915A6C42F010025A645B6C2D
:1014D000616003F010030193019B15E0254B5A6AEC
:1014E00042F020025A625A6A22F020025A62002216
:1014F00003925A6C42F020025A645B6C03F02003A2
:101500000393039B0523636030461749FEF70CFFE6
:1015100028461649FEF708FF721C03D03046012109
:1015200000F0FAF86B1C03D02846012100F0F4F813
:101530004FF41653A3600023E360236163612362C9
:10154000268365832046FFF745FF22680A4B9A42AF
:1015500007D10A4B0A4801221A6021464C2201F0A9
:10156000EFF905B0F0BD00BF4C6F0008F86E000841
:10157000001001400038024000440040580C002098
:10158000280E00204368034A9B01D3581868C0F313
:1015900040107047580A002038B544680546284670
:1015A000FFF7F0FF0028FAD0A401034B1B5958683D
:1015B000C0F3080038BD00BF580A00204368034A42
:1015C0009B01D3581868C0F3C0107047580A002018
:1015D00070B5456806460C463046FFF7EFFF002819
:1015E000FAD0AD01024B5B59C4F308045C6070BDD6
:1015F000580A00207FB50023072853D8DFE800F001
:1016000004111E2B3852524500932A4B2A481A6B5C
:1016100042F001021A631B6B03F001030093009B6D
:1016200044E00193234B25481A6B42F002021A63EF
:101630001B6B03F002030193019B37E002931D4BE8
:101640001F481A6B42F004021A631B6B03F0040379
:101650000293029B2AE00393164B1A481A6B42F03E
:1016600008021A631B6B03F008030393039B1DE03E
:101670000493104B14481A6B42F010021A631B6B50
:1016800003F010030493049B10E00593094B0F48EB
:101690001A6B42F080021A631B6B03F08003059300
:1016A000059B03E00A48FEF78BFE002007B05DF8BB
:1016B00004FB00BF0038024000000240000402406A
:1016C00000080240000C024000100240001C0240D2
:1016D000A16E000830B5054687B0C0F303100C4674
:1016E00005F00F05FFF786FF0123AB4004F00F0262
:1016F0000193084B53F822300293C4F3021303936F
:10170000C4F3C314032301A904930594FFF786F8D7
:1017100007B030BDC46E000838B500F00F05C0F347
:1017200003100C46FFF766FF6B00C16803229A4066
:1017300021EA0202032CC260C16828BF00249C4039
:101740000C43C46038BD10B50021044604F00F04FA
:10175000FFF7C0FF0120A04010BD70B504464B1C30
:101760000E4621800DD0C1F30310FFF743FF05465D
:101770003046FFF7E8FF05F1100318356060A360FD
:10178000E56070BDB0F90000FFF7C6BF0129B0F9F0
:10179000000018BF0021FFF79DBF08B5FFF762FCEE
:1017A000BDE80840FFF70CB9054B186830B90122B5
:1017B0001A60044B044A1A60FFF7B4BD704700BFBB
:1017C000980C00205C0C0020000C004008B5044B75
:1017D0001B680BB9FFF7E8FF024B586A08BD00BF52
:1017E000980C0020000C0040034B1B685863DA681B
:1017F00042F00202DA6070475C0C0020034B1A686A
:10180000D36823F00203D360704700BF5C0C002054
:10181000024B1B686FF002021A6170475C0C0020DB
:1018200000B583B001900091019B1B881BB2B3F1FE
:10183000FF3F04D10B480C493422FEF76DFE009B9C
:10184000002B05D0019BDB68019A52681A6005E005
:10185000019BDB68019A526812041A6003B05DF8BC
:1018600004FB00BFA06F0008B86F000800B583B08C
:1018700001900B46ADF80230019B00221A80019BBB
:1018800000225A60019B00229A60019B0022DA60CC
:10189000019ABDF9023010461946FEF742FD019B40
:1018A000184603B05DF804FB00B583B001900091C9
:1018B000019B18460099FFF7B3FF03B05DF804FBE6
:1018C00000B583B00190009101980099FFF7ECFFFB
:1018D000019B184603B05DF804FB00BF08B507483C
:1018E0000121FFF7EDFF0648FEF7FCFD034800214C
:1018F000FFF7E6FF0248FEF7F5FDF0E79C0C00203D
:10190000CDCC4C3E00B583B001900091019B012BE2
:1019100008D1009B4FF6FF72934203D10348052183
:10192000FFF7A4FF03B05DF804FB00BF9C0C002090
:1019300008B501204FF6FF71FFF7E4FF08BD00BFB7
:1019400008B5054B1B68002B00D004E003480221BA
:101950000322FFF779FD08BD580C0020280E002057
:1019600000B585B00190019B022B01DC002318E03B
:10197000019B033B0D4A52F823300393019B033B29
:101980000A4A002142F82310039B002B02D14FF09A
:10199000FF3306E0039B1B6804331B6803989847DA
:1019A0000346184605B05DF804FB00BFB40C0020E8
:1019B00000B589B00390029101920093039B022B22
:1019C0001ADC1A4B1B68002B01D1FFF7B9FF00236B
:1019D00006930AE0029A069B13441B7814481946A2
:1019E000FFF7F6FD069B01330693069A019B9A4288
:1019F000F0D3019B079313E0039B033B0D4A52F87E
:101A000023300593059B002B02D14FF0FF3308E0F4
:101A1000059B1B681B6805980299019A98470790D7
:101A2000079B184609B05DF804FB00BF580C002066
:101A3000280E0020B40C002000B587B0039002915E
:101A400001920093039B022B0FDC154B1B68002BAC
:101A500001D1FFF775FF1348FFF79EFD0346DAB289
:101A6000029B1A700123059314E0039B033B0E4A6B
:101A700052F823300493049B002B02D14FF0FF3324
:101A800009E0049B1B6808331B6804980299019ABB
:101A900098470590059B184607B05DF804FB00BF0A
:101AA000580C0020280E0020B40C002000B587B090
:101AB000039002910192039B022B01DC002314E0AE
:101AC000039B033B0B4A52F823300593059B002BE5
:101AD00002D14FF0FF3308E0059B1B6810331B68F1
:101AE00005980299019A98470346184607B05DF891
:101AF00004FB00BFB40C0020704700BF08B5FFF71F
:101B0000FBFF08BD704700BF08B5FFF746FEFFF7B3
:101B1000F9FFFFF7E3FE0346184608BD10B485B091
:101B200001901B4B1B680393194B1A68019B1344CC
:101B30000293EFF308831C4623461A46029B9A42FF
:101B400094BF01230023DBB2002B05D0114B0C22E4
:101B50001A604FF0FF3315E00F4B1B68002B0DD0C0
:101B60000E4B1A680C4B1B681A44029B9A4205D80C
:101B7000084B0C221A604FF0FF3303E0044A029B2B
:101B80001360039B184605B05DF8044B704700BF17
:101B90009C010020740E0020B00C0020AC0C002032
:101BA00000B583B00190094B1B689B68184600F094
:101BB000B3F9064B1B68DB68184600F0ADF9019BD2
:101BC000002B01D0FEF707FCFEE700BFC805002090
:101BD00082B0019002B0704782B0019002B07047AD
:101BE00000B583B001900198FFF7F2FF03B05DF8F4
:101BF00004FB00BF00B583B001900198FFF7ECFF34
:101C000003B05DF804FB00BF00B585B00190009102
:101C1000002303930198009900F0B6FB0390039B07
:101C2000184605B05DF804FB00B587B0039002913B
:101C300001920023059303980299019A00F0CCFFCA
:101C40000590059B184607B05DF804FB00B583B00E
:101C5000019000910198009900F05CFA03B05DF8E2
:101C600004FB00BF00B587B00390029101920023EE
:101C7000059303980299019A00F00CF80590059BD2
:101C8000184607B05DF804FB0146002002460346F3
:101C900002F0BCBC10B502FB01F1FFF7B5FF044632
:101CA00068B150F8042C22F00302043A242A18D810
:101CB000132A06D8034600221A605A609A6020460A
:101CC00010BD00231B2A036043600FD9242A8360C0
:101CD000C36005BF0361436100F1100300F1180305
:101CE000E9E7002100F02AFF204610BD00F10803BB
:101CF000E1E700BF08B50021044602F0E3FC044B15
:101D00001868C36B03B198472046FFF749FF00BF2F
:101D1000F46F000800293DD070B505460C4608B1A7
:101D2000836B7BB3B4F90C300BB9002070BD28462F
:101D3000214600F031F8E36A064633B12846E169EE
:101D400098470028B8BF4FF0FF36A3891B061CD464
:101D5000216B41B104F14003994202D02846FFF7BC
:101D600075FF00232363616C21B12846FFF76EFFE6
:101D70000023636400F066F90023A38100F064F996
:101D8000304670BD00F058F9CCE728462169FFF7CE
:101D90005DFFDDE7002070478B899AB22DE9F041A5
:101DA0000D46110780463CD46A6843F40063002A5C
:101DB000AB8165DDAE6A002E4BD09BB203F480523E
:101DC000002192B2D8F80040C8F80010002A5BD079
:101DD0002A6D5F0705D569682B6B521A0BB1EB6B47
:101DE000D21A4046E9690023B047461C56D0AB8959
:101DF0002A692A6023F400639BB200226A60DA0435
:101E0000AB813BD4296BC8F8004011B305F1400306
:101E1000994202D04046FFF719FF00202863BDE831
:101E2000F0812E69AEB12C682E6091070CBF6B69F2
:101E30000023A41BAB600AE0324623466F6AE969BF
:101E40004046B8470028A4EB0004064404DD002CFB
:101E5000F2DC0020BDE8F081AB8943F04003AB81A8
:101E60004FF0FF30BDE8F081AB892A69696023F447
:101E700000639BB2AB81DB042A60C3D52865C1E750
:101E8000EA6B002A96DCE4E701234046E969B047A3
:101E9000431C024619D0AB89AE6A9AE7D8F8001005
:101EA0000029E1D01D2907D0162905D0AB8943F0C0
:101EB0004003AB81BDE8F081AB892A692A6023F435
:101EC00000630022AB816A609CE7D8F80030002BE9
:101ED000E1D01D2B07D0162B05D0AB8943F0400372
:101EE000AB81BDE8F081C8F80040B2E710B5044608
:101EF00082B008B1836B53B1B1F90C0008B902B0DC
:101F000010BD204602B0BDE81040FFF745BF01916B
:101F100000F092F80199EFE720B1054B01461868EF
:101F2000FFF7E4BF034B0449186800F0CBB900BFCA
:101F3000C8050020F46F0008ED1E0008014900F0FC
:101F4000C1B900BF151D00082DE9F04F354B45689C
:101F5000C3630024074600F53B7204230321C0F845
:101F6000E412C0F8E822C0F8E04283B02C606C6054
:101F7000AC606C66EC812C616C61AC61AB8121461C
:101F800005F15C00082200F0D9FDBE68DFF898B0CA
:101F9000DFF898A0DFF89890DFF89880C5F820B0B7
:101FA00001230922C5F824A0C5F82890C5F82C8083
:101FB000ED612146F381B28106F15C00346074600A
:101FC000B460746634617461B4610822019300F0F6
:101FD000B5FDFD68F66112200222C6F820B0C6F8F1
:101FE00024A0C6F82890C6F82C802146A881EA8152
:101FF0002C606C60AC606C662C616C61AC6105F14E
:102000005C00082200F09AFD019BED61C5F820B04C
:10201000C5F824A0C5F82890C5F82C80BB6303B090
:10202000BDE8F08F3D1F0008E92F00080D300008C3
:102030004530000865300008836B03B17047FFF737
:1020400083BF00BF704700BF704700BF38B5084B63
:10205000084DED1AAC1018BFED1805D0013C55F82D
:10206000043D9847002CF9D1BDE8384004F0A0BEEB
:10207000200A0020240A0020F8B5234F0C4606460B
:10208000FFF7AEFDBB685D6825F00305291B01F66F
:10209000EF7121F47F6121F00F01A1F58054B4F5B7
:1020A000805F07DB3046002100F08CFFBB682B44CB
:1020B000984204D03046FFF79DFD0020F8BD304621
:1020C000614200F07FFF01300DD0104BBA681968F3
:1020D0002D1B45F001053046091B55601960FFF7BF
:1020E00089FD0120F8BD3046002100F06BFFBA6881
:1020F000831A0F2BDEDD064C0449246843F00103EC
:10210000001B53600860D5E7CC050020C00D0020FF
:10211000D809002000294ED02DE9F0410C46804618
:10212000FFF75EFD54F8047C624927F00102A4F138
:102130000805AB188E6858689E4220F003005AD0FC
:10214000FE0758600BD454F8087CED1B01F1080E13
:10215000AC6874453A4467D0EF68E760BC601C180F
:102160006468E4070CD4544F9C68BC4202447CD0A1
:10217000D868E06042F0010384606B60AA5003E01D
:1021800042F001036B60AA50B2F5007F14D2D2086E
:1021900001EBC20348689F68AF609210012404FA03
:1021A00002F21043EB6048609D60FD604046BDE870
:1021B000F041FFF71FBD7047530A042B47D893091E
:1021C00003F13804600001EB80003A4983688342E0
:1021D00043D0596821F00301914202D99B6898428B
:1021E000F7D1DA68EA60AB6040469560DD60BDE833
:1021F000F041FFF7FFBCFF07024407D454F8083C46
:10220000ED1A1A44A868EB68C36098602B4B1B68F2
:1022100042F001009A4268608D60C7D3284B404667
:102220001968FFF729FFC1E719184968C90709D4D8
:10223000D9689B68024442F00100D9608B606860F5
:10224000AA50B3E742F001036B60AA50AEE7142B2B
:1022500014D803F15B046000B5E74A68A4100120BC
:10226000A04002434A601A46BCE742F001034D61B8
:102270000D61EC60AC606B60AA5097E7542B04D8FA
:10228000130B03F16E0460009DE7B3F5AA7F04D839
:10229000D30B03F17704600095E740F2545083427A
:1022A00004D8930C03F17C0460008CE7FC207E24AE
:1022B00089E700BFCC050020D4050020D409002008
:1022C000BC0D00202DE9F84310F538771FD0884663
:1022D00006464FF000097D68BC68013D11D4A38912
:1022E000012B05F1FF3508D9B4F90E300133214631
:1022F000304602D0C04749EA00096B1C04F168046B
:10230000EDD13F68002FE6D14846BDE8F883B946D5
:102310004846BDE8F88300BF70B50F4E0F4D761BE1
:10232000B61018BF002405D0013455F8043B984777
:10233000A642F9D10A4E0B4D761B04F033FDB610C0
:1023400018BF002406D0013455F8043B9847A64234
:10235000F9D170BD70BD00BF140A0020140A00201E
:10236000200A0020140A0020024B01461868FFF7DB
:102370004BBC00BFC8050020024B01461868FFF7A0
:1023800065BC00BFC80500202DE9F04F01F10B0529
:10239000162D83B0064627D935F0070500F1B68023
:1023A000A94200F2B380FFF71BFCB5F5FC7F22D2F7
:1023B000C24FE80807EBC003DC689C4200F0C8810C
:1023C0006368E168A56823F00303234430465A6834
:1023D000E96042F001028D605A60FFF70BFC08349F
:1023E000204603B0BDE8F08F102900F28F80FFF780
:1023F000F7FB1025DCE7680A00F08F80042800F264
:102400005481A80938304100AC4F07EB8101CC68FA
:10241000A14206D10CE0002A80F28280E468A14249
:1024200006D0636823F003035A1B0F2AF3DD01383B
:102430000130A2493C6901F1080E744500F07D812C
:10244000636823F003035A1B0F2A00F36381002AF9
:10245000C1F814E0C1F810E073DAB3F5007F80F042
:102460003981DB0801EBC3084FEAA30C4A68D8F8AE
:102470000890C4F80890012303FA0CF31343C4F83E
:102480000C804B60C8F80840C9F80C408210012449
:1024900094409C4262D8234206D120F0030064009D
:1024A000234200F10400FAD007EBC008C44681467D
:1024B000DCF80C309C4507D141E1002980F25181C4
:1024C000DB689C4500F03B815A6822F00302511BF7
:1024D0000F29F2DD1C46D3F80CC054F8088F5A19A6
:1024E00045F0010941F00105C3F804903046C8F8F1
:1024F0000CC0CCF808807A613A61C2F80CE0C2F8EE
:1025000008E055605150FFF775FB69E700240C2384
:102510002046336003B0BDE8F08F7E213F2073E793
:102520002344E1685A68A56842F00102E960304638
:102530008D605A60FFF75EFB0834204603B0BDE8AB
:10254000F08F234430465A6842F001025A60FFF788
:1025500051FB0834204603B0BDE8F08FBC686368C7
:1025600023F00308454504D8C5EB08030F2B00F3FF
:102570008C80534BDFF858A11A68DAF80030013329
:102580002A4404EB080B00F0508102F580520F3210
:1025900022F47F6222F00F0211463046019200F0D1
:1025A00011FDB0F1FF3F8146019A00F0478183455C
:1025B00000F2EE80434B1968CB451144196000F0DE
:1025C0004281DAF80000DFF808E101301BBFCBEBF5
:1025D000090B5944CEF80090196019F0070100F07A
:1025E0000781C1F10800C1F58051814408314A4496
:1025F000C2F30B02C2EB010A51463046019300F0D0
:10260000E1FC431C019B00F02C81C9EB0002524409
:1026100042F001021968C7F808905144BC42C9F859
:1026200004201960DFF89CA016D0B8F10F0F40F21B
:10263000EE806268A8F10C0323F00703E01802F0B3
:1026400001024FF0050E1A430F2B6260C0F804E040
:10265000C0F808E000F209811B4BBC681A6891427F
:1026600088BF1960194B1A689142626888BF196067
:1026700022F003029542A2EB050301D80F2B04DCE4
:102680003046FFF7B7FA0024AAE6621943F00103C7
:1026900045F0010565603046BA605360FFF7AAFA5D
:1026A0000834204603B0BDE8F08F142868D95428B8
:1026B00000F29780280B6E304100A5E6CC05002083
:1026C000BC0D0020C00D0020B80D0020B40D00206E
:1026D000D80900205A0A042A55D9142A00F2A780E2
:1026E0005B324FEA420C07EB8C0CDFF8BC81DCF864
:1026F000081061457FD04A6822F00302934202D25B
:1027000089688C45F7D1CA687B68E260A1609460F3
:10271000CC60BBE6631942F0010745F00105656036
:1027200030464B610B61C3F80CE0C3F808E05F6012
:102730009A500834FFF75EFA52E64B68A6E609F1B4
:10274000010919F0030F0CF1080C7FF4B1AE2CE075
:1027500004F108036469A34208BF02303FF469AE84
:102760002EE61A441C465168DB6854F8085F41F0B5
:10277000010151603046EB609D60FFF73BFA2FE6A8
:102780005B30410040E69A0938324FEA420CAAE732
:10279000BC42454B3FF40EAF9C68626822F00302D6
:1027A00068E7D8F8008098457CD110F0030FA8F1B5
:1027B000080300F1FF30F4D17B6823EA04037B6057
:1027C00064009C423FF6CAAE002C3FF4C7AE2342E1
:1027D00048467FF469AE6400234200F10400FAD059
:1027E00062E6B0F5AA7F18D8E80B773041000BE617
:1027F0004FF48051FBE6D8F8043092104FF0010CF2
:102800000CFA02F21343C8F804300A467DE70123AC
:10281000C9F804304C4600222CE740F25453984249
:102820001CD8A80C7C304100EEE51032B4E6542AE6
:1028300023D81A0B6E324FEA420C54E7BC68626828
:1028400022F0030216E7CBF30B0000287FF4B9AEA9
:102850004244BB6842F001025A60FDE6FC217E2042
:10286000D2E501224FF0000AD4E604F10801304617
:10287000FFF7ECF9DAF80010EEE6B2F5AA7F04D81B
:10288000DA0B77324FEA420C2DE740F254518A427C
:1028900004D89A0C7C324FEA420C24E74FF0FC0C2F
:1028A0007E2220E77B688BE7CC050020830770B48D
:1028B000C9B240D0541E002A3FD003788B4218BFC3
:1028C000431C06D11DE0F4B102788A4204F1FF34C2
:1028D00017D013F0030F184603F10103F3D1032CB3
:1028E00014D884B103788B420BD00519431C02E045
:1028F00002788A4205D0AB42184603F10103F7D1B2
:10290000002070BC7047204670BC704741EA012629
:10291000024646EA06461046043203687340A3F1B5
:10292000013525EA030313F0803FDAD1043C032C80
:102930001046F0D8D5E71446D1E71046E1E700BFCE
:10294000844641EA000313F003036DD1403A41D3BA
:1029500051F8043B40F8043B51F8043B40F8043B79
:1029600051F8043B40F8043B51F8043B40F8043B69
:1029700051F8043B40F8043B51F8043B40F8043B59
:1029800051F8043B40F8043B51F8043B40F8043B49
:1029900051F8043B40F8043B51F8043B40F8043B39
:1029A00051F8043B40F8043B51F8043B40F8043B29
:1029B00051F8043B40F8043B51F8043B40F8043B19
:1029C00051F8043B40F8043B51F8043B40F8043B09
:1029D000403ABDD2303211D351F8043B40F8043BA9
:1029E00051F8043B40F8043B51F8043B40F8043BE9
:1029F00051F8043B40F8043B103AEDD20C3205D3B9
:102A000051F8043B40F8043B043AF9D2043208D0B0
:102A1000D2071CBF11F8013B00F8013B01D30B8822
:102A200003806046704700BF082A13D38B078DD000
:102A300010F003038AD0C3F10403D21ADB071CBFD2
:102A400011F8013B00F8013B80D331F8023B20F83C
:102A5000023B7BE7043AD9D3013A11F8013B00F875
:102A6000013BF9D20B7803704B7843708B788370FD
:102A7000604670478842F0B50DD98B1898420AD24B
:102A80008118002A54D09A1A13F8014D01F8014D0B
:102A90009342F9D1F0BD0F2A48D940EA01039B07C0
:102AA00047D100F1100401F11003154653F8106CE2
:102AB00044F8106C53F80C6C44F80C6C53F8086C28
:102AC00044F8086C103D53F8046C44F8046C0F2D66
:102AD00003F1100304F11004E8D8A2F1100323F06D
:102AE0000F0302F00F0E1033BEF1030F194403441D
:102AF00021D91E1F0D467446043C55F8047B46F848
:102B0000047F032CF8D8AEF1040424F00304043449
:102B10002344214402F0030252B1013B0A4411F85C
:102B2000014B03F8014F9142F9D1F0BD0346F3E7A1
:102B3000F0BD0346F1E77246EEE700BF70B48407CC
:102B400046D0541E002A41D0CDB2034602E0621E98
:102B5000E4B3144603F8015B9A07F8D1032C2ED98D
:102B6000CDB245EA05250F2C45EA054519D903F1F3
:102B700010022646103E0F2E42F8105C42F80C5C04
:102B800042F8085C42F8045C02F11002F2D8A4F1A9
:102B9000100222F00F0204F00F041032032C134431
:102BA0000DD91E462246043A032A46F8045BFAD899
:102BB000221F22F003020432134404F003042CB158
:102BC000C9B21C4403F8011BA342FBD170BC70477F
:102BD00014460346C2E700BF2DE9F04F174683B005
:102BE0000E46002900F0E780814607F10B05FEF74D
:102BF000F7FF56F8043C162D23F00304A6F108084D
:102C00004CD810221546AF424DD8944280F28480B1
:102C1000DFF8ACB3DBF8080008EB0401884200F0F1
:102C2000D680486820F0010E8E44DEF804E01EF0E5
:102C3000010F3FD120F003002044904280F2C18078
:102C4000DB0700F18F8056F8083CC3EB080ADAF87E
:102C5000043023F0030300EB030E964534DBCB680E
:102C60008A685746D3609A6057F8081FDAF80C3024
:102C7000CB60221F242A996000F23681132A40F289
:102C8000FD803368CAF808307368CAF80C301B2A14
:102C900000F2408108360AF11003F0E025F0070544
:102CA000002D2A46AFDA0C230020C9F8003003B00B
:102CB000BDE8F08FD90755D456F8083CC3EB080A95
:102CC000DAF8043023F00303234493424ADB5746E7
:102CD000DAF80C1057F8080F221F242AC160886008
:102CE00000F20E81132A40F209813168CAF80810F7
:102CF0007168CAF80C101B2A00F2218108360AF10B
:102D000010023168116071685160B16891601C46B1
:102D1000DAF804303E46D046621B0F2A03F0010366
:102D20000ED823434444C8F80430636843F00103D9
:102D300063604846FEF75EFF304603B0BDE8F08FA3
:102D400008EB05011D4342F001030A44C8F8045092
:102D50004B60536843F00103083153604846FEF767
:102D600075FFE6E739464846FEF74EFF0746D8B1FD
:102D700056F8043C23F001024244A0F108019142BC
:102D800000F0AC80221F242A00F29980132A6AD80E
:102D900003463246116819605168596092689A601A
:102DA00031464846FEF752FF4846FEF723FF3846B5
:102DB00003B0BDE8F08F114603B0BDE8F04FFEF759
:102DC00023BFCA6889680446CA609160A4E7416865
:102DD00021F00301214405F1100081425BDADB0799
:102DE000C0D456F8083CC3EB080ADAF8043023F0E4
:102DF000030301EB030C60453FF766AF5746DAF873
:102E00000C3057F8081F221F242ACB60996000F26B
:102E1000B880132A40F2A9803368CAF80830736872
:102E2000CAF80C301B2A00F2B58008360AF11003EC
:102E300032681A6072685A60B2689A600AEB0502DA
:102E4000C5EB0C0343F00103CBF808205360DAF81C
:102E5000043003F001031D434846CAF80450FEF74E
:102E6000C9FE384669E733680360736843601B2A0C
:102E700029D800F1080306F108028BE73B463268C7
:102E80001A6072685A60B2689A603E467446DAF810
:102E90000430D04640E708EB05024B1B43F001032A
:102EA000CBF80820536056F8043C03F001031D439F
:102EB000484646F8045CFEF79DFE30463DE7314645
:102EC000FFF7D8FD6CE7B3688360F368C360242A1A
:102ED0002CD000F1100306F110025BE750F8042C2F
:102EE00022F00302144417E73146384674463E4642
:102EF000FFF7C0FDD046DAF804300DE73A4600E7A8
:102F0000314638461C463E46FFF7B4FDD046DAF857
:102F1000043001E7B368CAF81030F368CAF8143017
:102F2000242A18D010360AF11803A8E73369036180
:102F30007369436106F1180200F118032AE7B168CA
:102F4000CAF81010F168CAF81410242A0FD01036ED
:102F50000AF11802D5E63369CAF818307369CAF85D
:102F60001C3018360AF1200389E73B4660E73269D6
:102F7000CAF818207269CAF81C2018360AF1200213
:102F8000BFE631463846CDF804C0FFF773FDDDF8E3
:102F900004C053E7B368CAF81030F368CAF81430B5
:102FA000242A03D010360AF1180341E73369CAF81E
:102FB00018307369CAF81C3018360AF1200337E755
:102FC000CC05002038B5074C002305460846236091
:102FD000FEF7A4FD431C00D038BD2368002BFBD0B6
:102FE0002B6038BD740E002010B50C46B1F90E10E0
:102FF00002F0CEFE002803DB236D0344236510BDE1
:10300000A38923F48053A38110BD00BF2DE9F041B3
:1030100016468A891D46D3050C46074606D500226A
:10302000B1F90E10022302F0ABFBA289B4F90E1025
:1030300022F48052A281384632462B46BDE8F04148
:1030400001F0D0BA10B50C46B1F90E1002F098FBA1
:10305000A389421C0EBF23F4805343F480532065A0
:10306000A38110BDB1F90E1001F096BB20F0030151
:1030700010F00300C0F1000051F8043B00F1040C13
:103080004FEACC0C6FF000021CBF22FA0CF2134383
:103090004FF0010C4CEA0C2C4CEA0C4CA3EB0C024C
:1030A00022EA030212EACC1204BF51F8043B0430B6
:1030B000F4D0C2F1000102EA0102B2FA82F2C2F1D6
:1030C0001F0200EBD20070472DE9F04FC3B08946D4
:1030D0000A920E93089002F04FFB0368179318466C
:1030E000FFF7C4FFB9F80C3018901A0604D5D9F8C8
:1030F0001030002B01F0A1809FED997B8DED147BAA
:10310000002332AF139327932693169319930B93AF
:1031100025973C464E460A9D2B78002B00F0A9804F
:10312000252B02D1A5E0252B03D015F8013F002B5C
:10313000F9D10A9BEB1A73B1269A27990A98206055
:1031400001321944072A63602791269272DC083401
:103150000B9A1A440B922B78002B00F0C98700239E
:10316000691C6D788DF877301A460C9307934FF0F1
:10317000FF3A4B1CA5F12001582900F2E483DFE857
:1031800011F07702E203E2037B03E203E203E203CE
:10319000E203E203E203F7021402E203FB01180276
:1031A000E2038203C102C102C102C102C102C10223
:1031B000C102C102C102E203E203E203E203E2034D
:1031C000E203E203E203E203E203D0029103E2033B
:1031D0009103E203E203E203E2037403E203E20386
:1031E0000C03E203E203E203E203E2032A03E20345
:1031F000E2034403E203E203E203E203E203E20345
:10320000E203E203E203E2035F033302910391036B
:10321000910305033302E203E203ED02E2038502B8
:103220000202CB037E02E2039902E2037A00E20388
:10323000E203510208980793314625AA02F0E8FDFF
:1032400050B93C46079B83E70898314625AA02F00F
:10325000DFFD002800F08C81B146B9F80C3013F086
:10326000400F0B9B18BF4FF0FF33184643B0BDE82B
:10327000F08F0A9D6FE70A93079B980640F1B4828E
:103280000E9B03F1070929F0070303F10802D3E9B4
:1032900000890E9201234FF0000C8DF877C0CDF815
:1032A00044A0BAF1000F03DB079A22F080020792D4
:1032B00058EA090240F05783BAF1000F00F05C842D
:1032C000012B00F05A83022B00F09A8439464FEA12
:1032D000D80242EA49724FEAD90008F00703814652
:1032E0009046303358EA090201F8013DEFD1079AC0
:1032F0001091D20700F16E857B1A0D930D9A9245BD
:103300005346B8BF1346099300231293BCF1000F34
:1033100002D0099B01330993079B13F002030F931B
:1033200002D0099B02330993079B13F0840940F0F4
:1033300017830C9B099AC2EB0308B8F1000F40F306
:103340000F83B8F1100F2799269ADFF81CA030DD03
:1033500053464FF0100BC246A8461D460DE000BF75
:10336000000000000000000008700008AAF1100A28
:10337000BAF1100F04F1080417DD01321031072AE9
:103380002791269284E82008F0DD0898314625AA86
:1033900002F03EFD00287FF45FAFAAF1100ABAF1F7
:1033A000100F2799269A3C46E7DC2B464546D04627
:1033B0009A46013208EB010B072ACDF89CB0269201
:1033C000C4F800A0C4F8048000F37E849DF877C0A0
:1033D0000834BCF1000F0FD0269B01330BF1010B19
:1033E0000DF177010122072BCDF89CB0269384E8DC
:1033F000060000F3EA8308340F9B73B1269B013368
:103400000BF1020B1EA90222072BCDF89CB02693CC
:1034100084E8060000F3CD830834B9F1800F00F092
:103420001583119B0D9AC2EB030ABAF1000F3CDD24
:10343000BAF1100F269ADFF864942BDD49465B46FB
:10344000A9464FF01008DDF820B00D4606E0AAF1BD
:10345000100ABAF1100F04F1080417DD013210331D
:10346000072A2793269284E82001F0DD584631464A
:1034700025AA02F0CDFC00287FF4EEAEAAF1100AD6
:10348000BAF1100F279B269A3C46E7DC9B462B4659
:103490004D4699460132D344072ACDF89CB0269276
:1034A00084E8000600F379830834079BD90500F10E
:1034B0007082269B0D99109A226001338B44072B52
:1034C000CDF89CB06160269300F34A830834079BD3
:1034D0005A0741D50C9B099A9D1A002D3CDD102DF1
:1034E000269BDFF8BCA323DD4FF010085A46DDF819
:1034F000209004E0103D102D04F1080417DD013385
:103500001032072B27922693C4F800A0C4F8048039
:10351000F0DD4846314625AA02F07AFC00287FF407
:103520009BAE103D102D279A269B3C46E7DC934628
:103530000133AB44072BCDF89CB02693C4F800A010
:10354000656009DD0898314625AA02F061FC002873
:103550007FF482AEDDF89CB00B9B099A0C998A42ED
:10356000ACBF9B185B180B93BBF1000F7FF46CAEE4
:10357000002326933C46CEE5194607981D7840F077
:1035800004000790F5E50A93079B13F0200300F071
:103590000E810E9B03F1070929F0070303F10802CE
:1035A000D3E900890E92002375E61D7819462B2277
:1035B000DFE51D782A2D03F1010100F0BA87A5F19E
:1035C000300009280B464FF0000A3FF6D3AD13F840
:1035D000015B0AEB8A0A00EB4A0AA5F130000928D0
:1035E000F5D94AEAEA7AC5E50A93079B8DF8772070
:1035F0009B0640F1A1800E9B03F1070929F0070902
:10360000D9E9002309F108010E9190469946002A54
:1036100073F10003C0F20E849DF877C0CDF844A08A
:1036200001233EE60A939B4B1693079B8DF8772068
:103630009B0640F1F3800E9B03F1070929F0070375
:10364000D3E9008903F108020E92079BD90740F1E4
:10365000F58058EA090300F0F180079A8DF8795057
:10366000302342F002028DF878300792022312E6EE
:103670001D781946002A7FF47CAD202279E5079950
:1036800041F0200107911D78194672E50A93079BC6
:103690008DF877209A0640F1AE840B990E9A4FEA86
:1036A000E179136808468846043249460E92C3E918
:1036B000000130E50E9A0A93136810934FF0000B47
:1036C0008DF877B002F10409002B00F04886BAF1BA
:1036D000000F1098C0F2F68559465246FFF7E6F8FB
:1036E000002800F07986109BCDF844B0C31A0D93E2
:1036F000CDF8389023EAE3730993CDF848B09DF8EC
:1037000077C003E6A5F13000002113F8015B01EB5F
:10371000810100EB4101A5F130000928F5D90C9198
:1037200028E50A93079B8DF8772043F01003079351
:10373000079B9B063FF55FAF079BD80600F16B83A5
:10374000079B590640F167830E99B1F90080043157
:103750004FEAE87942464B460E9158E71D780799A3
:103760006C2D00F0D18441F010010791194600E55D
:103770000E9D29680C9108460028294601F1040194
:10378000C0F2C9840E911D781946F2E4079941F000
:10379000400107911D781946EBE40A93079B43F01B
:1037A00010030793079B13F020037FF4F2AE079AF0
:1037B00012F0100240F01C83079B13F0400300F04E
:1037C00017830E9913460A460432B1F800800E9210
:1037D0004FF000095FE50A93079B43F0100307933E
:1037E000079B98063FF54CAD079BD90600F109836E
:1037F000079B5A0640F105830E9AB2F80080043206
:103800004FF0000901230E9245E50A93224B1693CF
:10381000079B8DF877209B063FF50DAF079BD806D9
:1038200040F1DA830E9A13461B689846079B0432D0
:10383000D9070E924FF000093FF50BAF02232AE59E
:103840000E990A930A688DF8A02000230122043102
:103850009C4609920E918DF8773028ABCDF844C084
:10386000CDF848C00D92109356E5079941F0080134
:1038700007911D7819467CE4079941F001010791F1
:103880001D78194675E4079941F0800107911D786C
:1038900019466EE43C70000828700008F86F0008B4
:1038A000087000080A93079B8DF8772013F0080F23
:1038B0000E9BD34603F1070900F0848329F0070328
:1038C00093ED007B8DED147B03F108020E92DDE990
:1038D000140102F071FA0128DDE9140140F0588367
:1038E0000022002302F040FF002840F06D859DF883
:1038F00077C0079BBD4ADFF800E323F080030793FE
:10390000134603210020472DD8BF7346099111901B
:1039100010930D911290F9E40E9807990A933022B2
:1039200003688DF878200246782541F002010432C0
:103930009846AF4B169307910E924FF000098DF801
:1039400079500223A7E40A938DF87720002D00F028
:10395000CF83002301229C4609928DF8A0507AE77C
:10396000DDF89CB035E5012B7FF4ADACB9F1000F6B
:1039700008BFB8F10A0F80F00D820DF5847B08F1C5
:1039800030080BF8418DCBEB07030D93CDF840B019
:10399000B4E4652D40F3A080DDE91401002200238A
:1039A00002F0D8FE002800F04481269B914A226054
:1039B00001330BF1010B0122072BCDF89CB02693AC
:1039C000626000F33D8308341F9B139A934203DB2C
:1039D000079BDA077FF57BAD269B1899179A226023
:1039E00001338B44072BCDF89CB06160269300F324
:1039F00099830834139B5D1E002D7FF768AD102D51
:103A0000269BDFF8F89140F3B9814FF010085A4631
:103A1000DDF820A004E00834103D102D40F3AD8106
:103A200001331032072B27922693C4F80090C4F874
:103A30000480F0DD5046314625AA02F0E9F900285D
:103A40007FF40AAC279A269B3C46E5E70C9B099A33
:103A5000C2EB030ABAF1000F7FF7E3ACBAF1100F23
:103A6000269ADFF898912BDD49465B46A9464FF030
:103A70001008DDF820B00D4606E0AAF1100ABAF1F0
:103A8000100F04F1080417DD01321033072A2793C1
:103A9000269284E82001F0DD5846314625AA02F03E
:103AA000B7F900287FF4D8ABAAF1100ABAF1100FC9
:103AB000279B269A3C46E7DC9B462B464D4699467B
:103AC0000132D344072ACDF89CB0269284E8000640
:103AD00000F351820834A4E4139B269D012B40F38C
:103AE0001F82109B236001350BF101030122072D7A
:103AF00027932695626000F3258208341899616047
:103B0000013503EB010B072D179BCDF89CB02695D3
:103B1000236000F3238208340023DDE9140100222E
:103B200002F018FE139B002840F0DD80109A013B44
:103B3000013501329B44072D2695CDF89CB02260BB
:103B4000636000F30D810834199A62600135934473
:103B500021AB072DCDF89CB0269523607FF7B6AC3E
:103B60000898314625AA02F053F900287FF474AB77
:103B7000DDF89CB03C46AAE4002B32D1079BD80765
:103B80002FD50DF5847B30230BF8413DCBEB07039C
:103B90000D93CDF840B0FFF7B1BB0898314625AA88
:103BA00002F036F900287FF457ABDDF89CB03C46B4
:103BB0007BE40898314625AA02F02AF900287FF410
:103BC0004BABDDF89CB03C4627E40898314625AA6B
:103BD00002F01EF900287FF43FABDDF89CB03C46B4
:103BE0000AE4CDF834A01097FFF788BB1C700008DA
:103BF0003C7000085870000818700008F86F000842
:103C00001698BB464FEA181308F00F0143EA0973F0
:103C10004FEA191298469146435C0BF8013D58EA69
:103C20000903EFD15B46CDF840B0FB1A0D93FFF7C7
:103C300065BB1F9D002D40F30F82139A12998A4293
:103C40001346A8BF0B461D461099002D01EB020A32
:103C50000BDD269B21600133AB44072BCDF89CB0D4
:103C60006560269300F357830834129B002DA8BF8C
:103C70005B1B002B1D4640F3F580102D269BDFF8C3
:103C8000089640F3D0815A464FF01008DDF820B076
:103C900004E00834103D102D40F3C481013310328C
:103CA000072B27922693C4F80090C4F80480F0DD17
:103CB0005846314625AA02F0ABF800287FF4CCAA7A
:103CC000279A269B3C46E5E70898314625AA02F04C
:103CD0009FF800287FF4C0AA9DF877C0DDF89CB05B
:103CE0003C46FFF776BB03F1FF38B8F1000F7FF7D2
:103CF0002BAFB8F1100FDFF8909525DD5B464FF044
:103D0000100ADDF820B006E0A8F11008B8F1100F95
:103D100004F1080417DD01351033072D279326958C
:103D200084E80006F0DD5846314625AA02F070F816
:103D300000287FF491AAA8F11008B8F1100F279B72
:103D4000269D3C46E7DC9B460135C344072DCDF854
:103D50009CB02695C4F80090C4F804807FF7F3AEB9
:103D60000898314625AA02F053F800287FF474AA77
:103D7000DDF89CB0269D3C46E6E693460133AB4415
:103D8000072BCDF89CB02693C4F8009065607FF7B0
:103D90009DABE5E6BB46CDF824C0404649460A2225
:103DA000002302F031FD3032404649460BF8012D28
:103DB00000230A2202F028FD8046894658EA0903BA
:103DC000EBD15B46FB1ADDF824C0CDF840B00D9373
:103DD000FFF794BA302B109B3FF427AF013B1A46F4
:103DE0001093BA1A30230D9201F8013CFFF786BAFE
:103DF0000E990A6804310E9190464FF00009FFF7C2
:103E00004ABA0E990A68043101230E9190464FF088
:103E10000009FFF740BA0E9A136898464FEAE37913
:103E20001346043342460E93002A4B4673F10003B7
:103E3000BFF6F2AB4FF02D0CD8F1000869EB490941
:103E40008DF877C0CDF844A00123FFF72ABA08986F
:103E5000314625AA01F0DCFF00287FF4FDA9DDF83A
:103E60009CB03C46109A12991F9B0A449046139AA4
:103E7000934246DB079AD00743D4139AC8EB0A054E
:103E8000D31A9D42A8BF1D46002D0CDD269AC4F80A
:103E900000800132AB44072ACDF89CB065602692C1
:103EA00000F371820834002DACBF5D1B1D46002D50
:103EB0007FF70DAB102D269BDFF8CC937FF75EAF1D
:103EC0004FF010085A46DDF820A004E00834103DF9
:103ED000102D7FF752AF01331032072B2792269314
:103EE000C4F80090C4F80480F0DD5046314625AA9D
:103EF00001F08EFF00287FF4AFA9279A269B3C464D
:103F0000E5E7269A18981799216001328344072A19
:103F1000CDF89CB06060269200F309820834ACE7CB
:103F2000079BD9073FF5DDAD109B236001350BF1F1
:103F3000010B0123072DCDF89CB0269563607FF718
:103F400002AE0DE70898314625AA01F061FF00286E
:103F50007FF482A9279B269D3C46CFE508983146F1
:103F600025AA01F055FF00287FF476A9DDF89CB062
:103F7000269D3C46D0E50898314625AA01F048FF29
:103F800000287FF469A9DDF89CB03C46FFF749BAE8
:103F900001F012FF002840F0D1808646B74AB84BA6
:103FA000119007989DF877C0CDF848E0032120F0E4
:103FB0008000472DD8BF1A460991079010920D91A5
:103FC000FFF7A4B929F0070999ED007B09F108036F
:103FD0008DED147B0E937AE4079B0E9A13F0400F3D
:103FE00013463FF421AC0433B2F800800E934FF037
:103FF0000009FFF72ABB079BDB060BD4079B5D0676
:1040000008D50E9A136804320E92BDF82C201A803F
:10401000FFF781B80E9A136804320E920B9A1A6059
:10402000FFF779B893460133AB44072BCDF89CB02A
:104030002693C4F8009065603FF709AF083411E794
:104040000898314625AA01F0E3FE00287FF404A970
:10405000DDF89CB03C46B7E4269B8A4A22600133D7
:104060000BF1010B0122072BCDF89CB02693626067
:1040700000F3F38008342DB9139B1BB9079BDB07B2
:104080007FF525AA269B1898179A226001330BEB1F
:104090000001072B27916060269300F3F38104F160
:1040A00008026D42002D40F3FC80102DDFF8D891FE
:1040B00040F34A811024DDF8208004E00832103DEE
:1040C000102D40F3418101331031072B27912693A6
:1040D000C2F800905460F1DD4046314625AA01F057
:1040E00097FE00287FF4B8A82799269B3A46E6E772
:1040F000279BB146002B3FF4B0A80898314625AA6B
:1041000001F086FEFFF7A9B841F0200107915D7824
:10411000591CFFF72EB80C980E9140420C9019468E
:10412000FFF72BBA0898314625AA01F071FE002846
:104130007FF492A8DDF89CB03C465BE425F02003B8
:10414000BAF1FF3F099300F09580472B05D1BAF1F2
:10415000000F14BFD3464FF0010B159B079A002B9D
:1041600042F480720F92C0F2A8819DED147B8DED18
:104170001A7B4FF0000A662D00F0AE80462D00F04D
:10418000AB80099B452B0CBF0BF10109D9460220DE
:104190001FA920AA23AB8DE8010203920493029188
:1041A0000898DDE91A2300F09FFB672D109002D0DC
:1041B000472D40F0A180079BDB0740F19481109BC5
:1041C00003EB0908DDE91A010022002302F0C2FA1C
:1041D000002840F0FF80239B984506D930215A1CC7
:1041E00023921970239B9845F9D8109A9B1A139320
:1041F000099B472B1F9B00F0E080652D40F3FA8060
:10420000662D129300F06281139B129A934200F381
:104210004681079BD90700F1688122EAE2730D927B
:10422000BAF1000F40F0BE8009930F9B0793CDF8C1
:1042300044A09DF877C0FFF769B808984021FDF7C2
:10424000E3FCC9F80000C9F81000002800F09981CB
:104250004023C9F81430FEF74FBF0898314625AA0D
:1042600001F0D6FD00287EF4F7AF1F9DDDF89CB06D
:104270003C4600E74FF0060B6FE700BF24700008D4
:104280002070000858700008F86F00080898314640
:1042900025AA01F0BDFD00287EF4DEAF2799269BFC
:1042A0003A46139C5460013301EB040B072B109921
:1042B000CDF89CB0269311603FF752AC02F1080490
:1042C000FFF705B9CDF844B0FEF7D0FECDF8389031
:1042D0000D900346FFF70EBA03201FA920AA23ABB7
:1042E0008DE801080392049302910898DDE91A23EE
:1042F00000F0FAFAD9461090109B03EB0908099BCD
:10430000462B7FF45FAF109B1B78302B00F00381AE
:104310001F9B984456E70898314625AA01F078FD7E
:1043200000287EF499AFDDF89CB03C469DE40898E7
:10433000314625AA01F06CFD00287EF48DAF1F9B4D
:10434000DDF89CB03C4698E501332944072B2791C2
:104350002693C2F80090556098DC0832A1E75346D6
:10436000062B28BF06230D9323EAE373DDF840C034
:104370000993874BCDF83890CDF844C0CDF848C0AC
:104380001093FEF7C3BF0898314625AA01F040FDFF
:1043900000287EF461AF1F9B139ADDF89CB0D31AFE
:1043A0003C4680E509930F9B07934FF02D0C0023AB
:1043B0008DF877C01193FEF7ACBFDA1C19DB9B4573
:1043C00017DB129367251FE74FF02D0C8DF877C090
:1043D000FFF78FBA434608E72AEAEA731190CDF84F
:1043E000389012909DF877C00993CDF834A0FEF76D
:1043F0008DBF023D013B002B1F93BABF5B422D22B4
:104400002B22092B8DF884508DF885207BDD0DF152
:10441000930E70465F4A82FB0321DA17C2EBA102BA
:1044200002EB8201A3EB410303F13001092A134699
:1044300000F8011DEEDC02463033D9B202F8011D4E
:10444000964540F29B800DF18602034601E013F889
:10445000011B02F8011B7345F9D125AB1B1A0DF1A5
:104460008602134421AA9B1A139A1993012A134412
:104470000D9374DD0D9B002201330D93129223EAFC
:10448000E373CDE60898314625AA01F0C1FC002867
:104490007EF4E2AE1F9D2799269B3A4601E6129BC9
:1044A000002BD8BFC3F10208139BC8BF4FF001080F
:1044B00043440D9323EAE373B2E6DDE9140101F10D
:1044C00000431A901B934FF02D0A54E6002B3DDD5C
:1044D000BBF1000F0FD1079BDB070CD4129A0D9292
:1044E00022EAE2739CE6239B7FE6129B01330D9345
:1044F00023EAE37394E6129B0BF1010843440D9306
:1045000023EAE3738CE6303330228DF887308DF860
:10451000862022ABA6E7DDE91A010022002302F083
:1045200019F900287FF4F4AEC9F101031F939844F0
:1045300048E60E9DD5F800A028460430BAF1000FD9
:104540005D780E90BEF615AEFEF711BEBBF1000F02
:104550000ED1079BD8070BD401230D9360E6079B70
:1045600013F0010386D112930D9B23EAE37357E600
:104570000BF102030D9323EAE37351E60DF1860379
:1045800070E7089A0C2313604FF0FF30FEF76EBE01
:104590005070000867666666F0B59BB00D466FF018
:1045A00000444FF402774FF6FF7669460095049574
:1045B000ADF80C7002940594ADF80E60FEF784FD22
:1045C000009B00221A701BB0F0BD00BF30B4044C39
:1045D0000D46134601462A46206830BCFFF7DCBF73
:1045E000C805002070B5084C06460025084611464F
:1045F0001A462560FDF7DCF9431C00D070BD236826
:10460000002BFBD0336070BD740E00202DE9F04705
:10461000254C2568D5F84841064688469246994675
:10462000CCB360681F2818DC431C7EB104EB800506
:104630000121C5F888A0D4F8887101FA00F2174367
:10464000022EC4F88871C5F808911ED0023063604C
:1046500044F820800020BDE8F087144B03B34FF4EA
:10466000C870FDF781FE0446D0B1D5F84831002767
:1046700080E88800C5F8484138460123C4F88871AD
:10468000C4F88C71002EE1D0D0E7D4F88C110A4325
:10469000C4F88C21DAE705F5A674C5F84841C0E7EF
:1046A0004FF0FF30BDE8F087F46F00086923000881
:1046B000024B13B10248FDF7E7BA70470000000053
:1046C0004D2000082DE9F04F314B83B01B6800935B
:1046D00003F5A47381460E460193009BD3F84871FD
:1046E00027B3DDF804A07C68651E0ED4013407EB07
:1046F00084044FF00008E6B1D4F80031B34218D07A
:10470000013D6B1CA4F10404F5D1224B73B17B680D
:10471000002B36D13B68002B34D03846CAF8003025
:10472000FDF72AFEDAF80070002FDCD103B0BDE8F7
:10473000F08F7B682268013BAB420CBF7D60C4F800
:104740000080002ADCD0D7F88831D7F804B00121E6
:10475000A940194208D190477B685B45BDD1DAF882
:104760000030BB42CCD0B8E7D7F88C31194204D125
:104770004846D4F880109047EEE7D4F88000904780
:10478000EAE73B68BA461F46002FACD1CEE700BF30
:10479000F46F00087923000838B5074C002305465C
:1047A00008462360FDF7DCF8431C00D038BD2368C1
:1047B000002BFBD02B6038BD740E002002690B6902
:1047C000934200F38F802DE9F04F03F1FF3801F1A0
:1047D000140700F1140B57F828205BF828304FEA33
:1047E000880483B00132B3FBF2F90BEB04030094AD
:1047F00007EB040A0193B9F1000F3BD000263246C3
:10480000BC46DE4634465CF8046BDEF80050B3B2BA
:10481000360C03FB094406FB09F606EB1446A3B26B
:10482000D31AB4B213FA85F3C4EB154404EB234452
:104830009BB243EA0443E2454FEA24424EF8043B6C
:104840004FEA1644DFD2009B5BF8033093B9019C1A
:10485000231F9B450CD254F8043C4BB9A4F1080328
:1048600002E01A68043B1AB99B4508F1FF38F8D3F7
:10487000C0F81080044601F0A1F900282EDB09F1F0
:1048800001095D46002357F8041B28688AB29A1A6A
:10489000090C12FA80F2C1EB104303EB224391B2F0
:1048A00041EA0341BA4545F8041B4FEA2343EAD2E3
:1048B0005BF828200BEB880382B91A1F93450BD2B3
:1048C00053F8042C42B9083B02E01A68043B1AB9B9
:1048D0009B4508F1FF38F8D3C4F81080484603B070
:1048E000BDE8F08F002070472DE9F04F016C97B0C4
:1048F0000446239DCDE9022341B1426C4A60012365
:1049000093408B6000F076FF00232364DDE90223EF
:10491000002B994636DB00232B60A54B1A4609EA8B
:104920000303934217D0DDE90267002200233046DB
:10493000394601F00FFF804600282BD0229A012330
:104940001360249B002B00F0CB809A48186001383C
:1049500017B0BDE8F08F229A42F20F731360029BEA
:10496000002B00F0A6809448249B002BF0D0C37845
:10497000002B00F0B78000F10803249A136017B0F1
:10498000BDE8F08F039A012322F000492B60CDF897
:104990000C90C2E715AA14AB8DE80C0020463246F5
:1049A0003B4601F099F95FEA1955834640F08A8049
:1049B000DDF85080159D6FF4826345449D42C0F23E
:1049C00097827E4A521B09FA02F9029A05F21243B3
:1049D00022FA03F049EA000001F0DEFB0123013D69
:1049E000A1F1F8710D930022754B01F097FA6AA3BB
:1049F000D3E9002301F046FC69A3D3E9002301F0C9
:104A00008FFA064628460F4601F0D6FB66A3D3E987
:104A1000002301F037FC02460B463046394601F0D0
:104A20007FFA06460F4601F0C7FE39460490002281
:104A30003046002301F098FE002840F0A681049B38
:104A4000162B00F29F81049A5E4B03EBC203D3E95D
:104A50000001DDE9022301F0A5FE002800F04E82EE
:104A6000049B013B049300230B93C5EB0805B5F1B0
:104A7000010A00F1A18100230593049B002BC0F2E1
:104A800092819A440A9300230893209B092B2BD8E8
:104A9000052B40F36D86043B20930025209B023BB1
:104AA000032B00F24B86DFE813F0CC03BE03B20207
:104AB0006006414B444AC9F31300002814BF18464E
:104AC000104651E7C7F3130343F07F51CDF834800C
:104AD0003046A5F2FF3541F44011DDF8508082E701
:104AE0003A4835E7C31C48E700216164204620911D
:104AF00000F05AFE4FF0FF330693209A0C930123E7
:104B00000790219220640993159B002BC0F2D2805C
:104B1000049A0E2A00F3CE802A4B03EBC203D3E99A
:104B20000089219B002BC0F28F83DDE9026742469A
:104B30004B463046394601F0CFFC01F03DFE82463F
:104B400001F03AFB42464B4601F09CFB0B46024605
:104B50003946304601F0E2F9079D0AF130032B7027
:104B6000069B012B06460F4605F1010562D0002287
:104B7000174B01F087FB0022002306460F4601F089
:104B8000E9FD002840F08380CDF808B00594DDF8F9
:104B90001CB0069C29E000BF61436F63A787D23F2A
:104BA000B3C8608B288AC63FFB799F501344D33F1C
:104BB0000000F07F59700008687000080EFCFFFFCD
:104BC0000000F83F787000085C700008587000081A
:104BD0000000244001F056FB0022002306460F4649
:104BE00001F0B8FD002840F0DE8342464B463046D7
:104BF000394601F071FC01F0DFFD824601F0DCFA7C
:104C000042464B4601F03EFB02460B4630463946D3
:104C100001F084F90AF1300E05F801EBCBEB050E3B
:104C2000744506460F464FF00002B54BD2D1DDF871
:104C300008B0059C32463B463046394601F070F9D3
:104C400006460F464046494632463B4601F08CFD3B
:104C500048B94046494632463B4601F07BFDB0B17B
:104C60001AF0010F13D015F8018C07996B1E04E0A0
:104C70008B4200F0428413F8018DB8F1390F03F133
:104C800001051A46F4D008F10103DBB21370204687
:104C9000594600F0AFFD0022049B2A70229A01338E
:104CA0001360249B002B00F0458307981D6017B00C
:104CB000BDE8F08F099A002A00F08480209A012A2A
:104CC00040F30483069B5F1E089BBB42C0F2A08397
:104CD000DF1B069B002BC0F29E84059D069B059A58
:104CE00020461A44012105929A4400F01DFE064612
:104CF00065B1BAF1000F09DDAA45059A5346A8BF70
:104D00002B46D21A0592ED1AC3EB0A0A089B002B18
:104D10001ADD099B002B00F07483002F10DD314653
:104D20003A46204600F0A4FE06465A463146204642
:104D300000F004FE59468046204600F05BFDC34665
:104D4000089BDA1B40F0A2822046012100F0ECFD16
:104D50000A9B002B804639DD01461A46204600F0AA
:104D600087FE209B012B804640F396824FF000097E
:104D7000D8F8103008EB8303186900F087FDC0F104
:104D800020002DE001230B936FE6049801F014FA44
:104D900032463B4601F0DEFC00287FF450AE049B17
:104DA000013B04934BE6059A049BD21A5B4208939D
:104DB000002305920A9368E6CAF1000305934FF0B9
:104DC000000A5AE6089F059D099E91E7209B012B4A
:104DD00040F3B3824FF000090A9B002BC8D1012099
:104DE000504410F01F0000F08180C0F12003042B1C
:104DF00040F3B584C0F11C00059B034405930544B2
:104E00008244059B002B05DD59461A46204600F0DA
:104E10007FFE8346BAF1000F05DD4146524620462B
:104E200000F076FE80460B9B002B40F06882069BCC
:104E3000002B40F39582099B002B71D1DDF81C906B
:104E4000069F4D4602E000F0DFFC8346414658468F
:104E5000FFF7B4FC00F1300C05F801CBC9EB0503FA
:104E6000BB42204659464FF00A024FF00003EADBEE
:104E7000079B069A012AACBF9B1801331D464FF0D1
:104E8000000A594601222046CDF808C000F040FE35
:104E90004146834600F092FE0028DDF808C040F34A
:104EA000ED8215F8012C07996B1E04E08B4200F08F
:104EB000738213F8012D392A03F10105F6D001326E
:104EC0001A704146204600F095FC002E3FF4DFAEFC
:104ED000BAF1000F05D0B24503D05146204600F08C
:104EE00089FC3146204600F085FCD0E61C2083E793
:104EF000044B029A5B1B02FA03F06DE50B90B4E5DC
:104F000000002440EEFBFFFF3146002320460A222A
:104F100000F07AFC0C9B002B064640F309840693B4
:104F2000002D05DD31462A46204600F0F1FD0646FB
:104F3000B9F1000F40F0EB82B146069B079A013BA6
:104F4000D3180893029B03F00103099317464146C7
:104F50005846FFF733FC31460546584600F02EFE12
:104F60004A4682464146204600F04CFEC26803464F
:104F700005F1300C002A40F0B88119465846CDF8AA
:104F800018C0059300F01AFE059B029019462046B2
:104F900000F030FC029ADDF818C02AB9209B1BB93A
:104FA000099B002B00F0A883BAF1000FC0F24882E1
:104FB00005D1209B1BB9099B002B00F04182002AE0
:104FC00000F3B982089B87F800C007F1010A9F42ED
:104FD000554600F0BC8259460A220023204600F0C4
:104FE00013FC4E458346314620464FF00A024FF0EF
:104FF000000300F0748100F007FC494606460A22CF
:105000002046002300F000FC574681469FE701231D
:105010000993219B002B40F30A821F461E460C93E6
:1050200006930021172F61640AD9012204235B0033
:1050300003F114008742114602F10102F7D26164C4
:10504000204600F0B1FB0E2E079020643FF65CADC9
:10505000002D3FF459AD9DED027B049900298DEDA3
:105060000E7B40F32382B74B01F00F020D1103EBCF
:10507000C203E906D3E9006740F1D281B24B51EC9B
:10508000170BD3E9082301F027FACDE9020105F057
:105090000F054FF003088DB1DFF8AC92304639466A
:1050A000EA0705D5D9E9002301F0ECF808F1010879
:1050B0006D1009F10809F3D106460F46DDE902013A
:1050C00032463B4601F008FACDE902010B9B43B1A1
:1050D000DDE9020100229D4B01F046FB002840F073
:1050E000AE82404601F068F8DDE9022301F0CAF81B
:1050F000974B002200F014FF069B0646A1F1507763
:10510000002B00F06281049BDDF818901293099B3C
:10511000002B00F023828B4B8E4903EBC90353E92C
:105120000223002001F0D8F932463B4600F0F6FE9B
:10513000DDE90267CDE910013946304601F03CFB5C
:10514000054601F039F8303502460B4630463946FF
:1051500000F0E4FE5FFA85F8079DDDE9102385F88D
:10516000008006460F46013501F0FEFA002840F0A7
:10517000A78232463B460020744900F0CFFE02462B
:105180000B46DDE9100101F00DFB002840F0AD8277
:10519000B9F1010F40F38481079BCDF84CA0CDF805
:1051A00008B09944DDE910ABA0460DE00020674946
:1051B00000F0B4FE52465B4601F0D6FA002840F0FB
:1051C0008F824D4500F06781504659460022624B60
:1051D00001F058F80022604B82468B463046394633
:1051E00001F050F80F46064601F0E6FA044600F0DA
:1051F000E3FF02460B463046394600F08FFE30345E
:10520000E4B252465B4605F8014B06460F4601F0F4
:10521000ABFA32463B460028C8D0129BDDF808B0F6
:105220000493444633E500230993219B049A1344D5
:105230000C930133002B069340F30081069E374602
:10524000EFE600230993E4E6069B002B3FF76DACE5
:1052500040F0D38040460022404B494601F012F80E
:10526000DDE9022301F094FADDF8188046460028B3
:1052700000F08A80219B079DDB4304934146204632
:1052800000F0B8FA002E7FF42CAE00E55946204617
:1052900000F0EEFB834657E5029B002B7FF466ADE2
:1052A000039BC3F31303002B7FF494AD039B23F004
:1052B00000473F0D3F05002F00F01B82059B013387
:1052C00005930AF1010A4FF0010985E50D9A002ABC
:1052D00000F0A78103F23343089F059DFFE400F02F
:1052E00093FA57460646814631E601462046CDF8F8
:1052F00008C000F07FFA0122DDF808C054E65846E5
:10530000414600F05BFC0028BFF691AD049F594672
:10531000002320460A22013F049700F075FA099BFA
:105320008346002B7FF4F0AD0C9B002B40F3F581FE
:10533000069383E50798FFF70BBB029B002B7FF4D6
:1053400049ADADE778700008507100080000F03FEB
:1053500000001C400000E03F00002440000014401A
:10536000209B022B7FF767AD069B002B82D1414625
:105370000522204600F048FA80464146584600F093
:105380001DFC00287FF776AF049A0799312301327C
:1053900004920B704D1C71E7049A01320492079A33
:1053A000312313708DE5DDF808B0059C6FE44046AD
:1053B00000F002FFDDE9022300F064FF0022C24B8F
:1053C00000F0AEFD0646A1F150770022BF4BDDE9AB
:1053D000020100F0A3FD32463B468046894601F0BB
:1053E000E1F9002840F0B680324607F1004340461C
:1053F000494601F0B9F9002852D04FF0000846465E
:1054000038E75946089A204600F032FB83469BE471
:10541000089B0A9A0897FB1A1A440A92002758E434
:105420009DED0E7B4FF002088DED027B33E60126E9
:1054300021960C9606960021616401E61E46FAE765
:10544000002A15DD594601222046CDF808C000F09B
:105450005FFB4146834600F0B1FB0028DDF808C041
:1054600040F35481BCF1390F00F011810CF1010CB3
:10547000B24687F800C07D1C4E4622E504D11CF0E0
:10548000010F01D00DE5154615F8013C302B05F153
:10549000FF32F8D015E5DDF84CA0DDF808B0444641
:1054A000DDE90E23CDE90223FFF72EBB049B5D420D
:1054B000002D00F0BD80864B05F00F0203EBC20308
:1054C000D3E90023DDE90E0100F0DCFE2D11CDE96A
:1054D000020100F027817F4E4FF00208EB0705D54F
:1054E000D6E9002300F0CEFE08F101086D1006F1A8
:1054F0000806F3D1CDE90201E8E5049A01320492ED
:10550000079A3023137031231370FFF7C0BB716803
:10551000204600F049F933699A1C0546920006F1CD
:105520000C010C30FDF70CFA20462946012200F050
:10553000EFFA814601E5BCF1390F00F0A8800CF1CB
:10554000010CB24687F800C07D1C4E46B9E4B24655
:105550004E4696E44FF00008464615E75C4909F1CF
:10556000FF3301EBC30132461393D1E900013B46FF
:1055700000F088FEDDE90267CDE9100139463046CA
:1055800001F01AF9054600F017FE02460B463046B8
:10559000394600F0C3FC079A3035B9F1010F157098
:1055A00006460F4602F1010523D0079BCDF808A05F
:1055B0004B445E469A46AB460022474B00F062FEE3
:1055C0008946804601F0F8F8074600F0F5FD3037CF
:1055D00002460B464046494600F0A0FC0BF8017B12
:1055E000D345E9D1139BDDF808A0B3460F46064624
:1055F0001D440022394BDDE9100100F091FC3246D8
:105600003B4601F0B1F8002847D0129B049315F8EF
:10561000018CFFF72ABB059B069A9D1A0023FFF712
:105620005EBB149B089F059DC3F13603FFF757BB74
:105630009DED0E7B4FF002088DED027B46E5069B4B
:10564000002B3FF4B4AE0C9D002D7FF729AF002254
:10565000214BDDE9020100F015FE06460F4608F178
:105660000100CDE9026700F0A7FD02460B46304677
:10567000394600F007FE144B002200F051FC049B59
:10568000013B0646A1F150771293A9463FE5392226
:10569000B2463A704E467D1C05E4DDE91023002039
:1056A0000E4900F03BFC32463B4601F07BF808B95E
:1056B000F6E6154615F8013C302B05F1FF32F8D01F
:1056C000129B0493FFF7E3BA00001C400000144053
:1056D0007870000850710008000024400000E03F8E
:1056E0004346DDF808B0A0461C46129B0493FFF722
:1056F000BCBAB946FFF770BBBCF1390FC7D0BAF1DD
:10570000000F7FF7B5AE05F1310CB1E67FF4B0AE16
:105710001CF0010F3FF4ACAEA4E6209B022B04DC8E
:105720000C9B05E64FF00208D0E40C9B06931BE6A9
:10573000209B022BF9DC0C9BFFF7F1BB0025656475
:105740002946204600F030F84FF0FF3306930C93C3
:1057500001230790219520640993FFF7D5B93FF401
:1057600050ABC0F13C00FFF747BB012309935CE558
:105770000125FFF793B900BF00487047DC090020FE
:1057800070B5084C06460025084611461A462560A5
:10579000FCF78CF9431C00D070BD2368002BFBD0B4
:1057A000336070BD740E0020C36C70B505460C46A6
:1057B0004BB153F8240080B1026843F82420002341
:1057C0000361C36070BD04212122FCF74BFAE86439
:1057D00003460028EDD1002070BD012101FA04F636
:1057E000721D28469200FCF73DFA0028F3D0446071
:1057F0008660E4E731B1C36C4A6853F82200086060
:1058000043F82210704700BFF0B50C6983B00D4615
:10581000064601F1140E0027DEF8001088B2090CCC
:1058200002FB003302FB01F101EB134101379BB294
:1058300003EB0143BC424EF8043B4FEA1143EBDC5F
:105840003BB1AA68944207DA05EB84020134536144
:105850002C61284603B0F0BD6968019301313046E0
:10586000FFF7A2FF2A69023205F10C0107469200F8
:105870000C30FDF765F8F26C6968019B52F8210065
:10588000286042F821503D46DEE700BF030C1B04B0
:10589000B3B90004102310F07F4F04BF0002083397
:1058A00010F0704F04BF0001043310F0404F04BFEC
:1058B00080000233002807DB420003D42020704719
:1058C0000023E8E7581C704718467047036813F038
:1058D000070207D0D90720D49A0720D49B08036079
:1058E0000220704799B209B91B0C102213F0FF0F68
:1058F00004BF1B0A0832190704BF1B0904329907A9
:1059000004BF9B080232D90704D45B0801D12020D0
:1059100070470132036010467047002070475B08F3
:1059200003600120704700BF10B50C460121FFF74E
:105930003BFF01224461026110BD00BF2DE9F04F21
:105940000F691669B74283B00D461446C0F28D80C8
:1059500033463E461F46AB68696806EB0708984524
:10596000C8BF0131FFF720FF00F1140C0CEB8809D0
:10597000CC45009005D26346002143F8041B9945AD
:10598000FBD804F1140202EB870A05F11403524517
:1059900003EB860E54D2CDF80490994652F8043B9E
:1059A0001FFA83FBBBF1000F20D000204F46664654
:1059B000054600E01E4657F8044B3068A1B283B29A
:1059C0000BFB0131240C000C4B190BFB040000EB0A
:1059D000134099B2334641EA0041BE454FEA1045B3
:1059E00043F8041BE6D8756052F8043C5FEA134B99
:1059F00020D0DCF80030674618464D46002100E014
:105A000037462C88000C0BFB040001449CB23E4638
:105A100044EA014346F8043B786855F8044B83B2E6
:105A2000240C0BFB043404EB1143AE454FEA134145
:105A3000E6D87B6092450CF1040CAFD8DDF80490F9
:105A4000B8F1000F0BDD59F8043CA9F104091BB1B2
:105A500005E059F8043D13B9B8F10108F9D10098EF
:105A6000C0F8108003B0BDE8F08F15460C4672E711
:105A700012F003032DE9F041144607460E462DD1DE
:105A8000A4101CD0BD6C95B3E3074FF0000806D4FA
:105A9000641014D02868A8B10546E307F8D5384645
:105AA00031462A46FFF74AFFB6B17268FB6C6410B4
:105AB00053F82210316043F822600646EAD130469E
:105AC000BDE8F08129462A463846FFF737FF2860AF
:105AD000C0F800800546E0E70646D9E75A1E0B4DA0
